:020000040000FA
:040000001E210000BD
:080008000C1819210C19162136
:100010000D1813210C1A0F208C1A2A2009008316A0
:100020000C088312C100411E1F2806304006031928
:100030002028C00A06304006031920285320080053
:10004000831618088312C100C1181F28831698123E
:1000500083121F281A08AA002E200800A9080319D5
:1000600033283728080055302A06031D42282B3034
:10007000290784002A088000A90A2908053A0319DB
:10008000592832285530C2000230C300C401C501CE
:10009000C6014B2032280030C0005320831698162A
:1000A0000C168312080042304007840000089900B3
:1000B0000800A9010A128A112C038207BD2897287B
:1000C0008A2862282D038207662878282E08C70010
:1000D0002F08C80057217321652178215530C200AF
:1000E0000130C3002D08C400C501C6014B203228D1
:1000F0002E08C9002F08CA005721732165217821D5
:100100005530C2000130C3002D08C400C501C6012E
:100110004B20322857217321652178215530C208A0
:100120000130C300C401C501C6014B2032282D0394
:1001300082079B28B2282508B4002608B5003A0893
:10014000B6003B08B700A121A62032285530C200D6
:100150000130C3002D08C4003808C5003908C600A6
:100160004B2008002708B4002808B5003A08B6005C
:100170003B08B700A121A62032282D038207C12801
:10018000FB284708CB004808CC00E320003A0319BD
:10019000D9283A08B4003B08B5002E08B6002F084D
:1001A000B70096213808A5003908A6007321EF2072
:1001B00032285530C2000230C3002D08C400C501EA
:1001C000C6014B2032284B08B4004C08B5002E085D
:1001D000B6002F08B700A1210318013400345530B0
:1001E000C2000130C3002D08C4002E08C5002F082E
:1001F000C6004B2008004908CB004A08CC00E32089
:10020000003A0319D9283A08B4003B08B5002E0873
:10021000B6002F08B70096213808A7003908A800B3
:100220007821EF20322886100D10080006100C11DE
:1002300008008F210C10033086000800242139218A
:1002400049217D218B179421DC30BA00D530BB00C9
:100250000030BC000030BD000030BE000030BF00E8
:100260000330C700E830C8000330C900E830CA00D6
:100270000800A90183161930990018121815831265
:100280009817181318160B1783168C1683128C12D6
:100290000800572173216521782183160C150D1450
:1002A00083120A3097000A309D000B1708003A08A5
:1002B000B4003B08B5003C08B6003D08B7009621E5
:1002C0003808A5003908A60008003A08B4003B0821
:1002D000B5003E08B6003F08B70096213808A700D1
:1002E0003908A8000800260895002508960008008F
:1002F00028089B0027089C000800D830A300F03095
:10030000A4008F2190121012901083160C14061066
:10031000861083120B17033086001014080024087F
:100320008E0023088F000800000094293508370745
:10033000B90003189F2934083607B8000800340AAA
:100340009C2937083502B900031CAA293608340253
:08035000B8000800360AA729D5
:02400E00F23F7F
:00000001FF
