:020000040000FA
:0400000034210000A7
:080008000C182F210C192C210A
:100010000D1829210C1A18208C1A33200B191120C5
:1000200009008B1E0800152008008B12871208009B
:1000300083160C088312C100411E28280630400692
:1000400003192928C00A06304006031929285C2014
:100050000800831618088312C100C11828288316C7
:100060009812831228281A08AA0037200800A90825
:1000700003193C284028080055302A06031D4B2848
:100080002B30290784002A088000A90A2908053A8C
:10009000031962283B285530C2000230C300C40156
:1000A000C501C60154203B280030C0005C208316E7
:1000B00098160C168312080042304007840000088E
:1000C00099000800A9016C200A128A112C038207EA
:1000D000D328AD28A028782887168316811281118D
:1000E000011581140114831281010B118B16080074
:1000F0002D0382077C288E282E08C7002F08C800F1
:1001000075219121832196215530C2000130C30011
:100110002D08C400C501C60154203B282E08C90083
:100120002F08CA0075219121832196215530C200E4
:100130000130C3002D08C400C501C60154203B286E
:1001400075219121832196215530C2000130C300D1
:10015000C401C501C60154203B282D038207B128E4
:10016000C8282508B4002608B5003A08B6003B08A0
:10017000B700BF21BC203B285530C2000130C3006E
:100180002D08C4003808C5003908C60054200800EE
:100190002708B4002808B5004D08B6004E08B7007F
:1001A000BF21BC203B282D038207D72811294708EF
:1001B000CB004808CC00F920003A0319EF283A0890
:1001C000B4003B08B5002E08B6002F08B700B421D4
:1001D0003808A5003908A600912105213B28553093
:1001E000C2000230C3002D08C400C501C60154205E
:1001F0003B284B08B4004C08B5002E08B6002F0869
:10020000B700BF210318013400345530C20001305B
:10021000C3002D08C4002E08C5002F08C6005420B6
:1002200008004908CB004A08CC00F920003A03191D
:10023000EF284D08B4004E08B5002E08B6002F0870
:10024000B700B4213808A7003908A8009621052175
:100250003B2886100D10080006100C110800AD2177
:100260000C100330860008003A21572167219B219A
:100270008B17B221B530BA000030BB00B430CD00CE
:100280009C30CE000030BC000030BD000030BE000D
:100290000030BF000530C7007830C8000630C90004
:1002A0004030CA0083168712831287120800A90102
:1002B00083161930990018121815831298171813FD
:1002C00018160B1783168C1683128C1208007521D2
:1002D00091218321962183160C150D1483120A3067
:1002E00097000A309D000B1708003A08B4003B083D
:1002F000B5003C08B6003D08B700B4213808A50099
:100300003908A60008004D08B4004E08B5003E08A4
:10031000B6003F08B700B4213808A7003908A80084
:1003200008002608950025089600080028089B006C
:1003300027089C000800B130A300E030A400AD21E4
:1003400090121012901083160C140610861083124F
:100350000B17033086001014080024088E002308B1
:100360008F0008000000B22935083707B9000318CC
:10037000BD2934083607B8000800340ABA293708FE
:100380003502B900031CC82936083402B800080039
:04039000360AC5293B
:02400E00F23F7F
:00000001FF
